{"abi":[{"type":"receive","stateMutability":"payable"},{"type":"function","name":"DENOMINATOR","inputs":[],"outputs":[{"name":"","type":"uint256","internalType":"uint256"}],"stateMutability":"view"},{"type":"function","name":"_APPROVE_PROXY","inputs":[],"outputs":[{"name":"","type":"address","internalType":"address"}],"stateMutability":"view"},{"type":"function","name":"_WETH","inputs":[],"outputs":[{"name":"","type":"address","internalType":"address"}],"stateMutability":"view"},{"type":"function","name":"_WNATIVE_RELAY","inputs":[],"outputs":[{"name":"","type":"address","internalType":"address"}],"stateMutability":"view"},{"type":"function","name":"commissionRateLimit","inputs":[],"outputs":[{"name":"","type":"uint256","internalType":"uint256"}],"stateMutability":"view"},{"type":"function","name":"smartSwapByInvest","inputs":[{"name":"baseRequest","type":"tuple","internalType":"struct DexRouter.BaseRequest","components":[{"name":"fromToken","type":"uint256","internalType":"uint256"},{"name":"toToken","type":"address","internalType":"address"},{"name":"fromTokenAmount","type":"uint256","internalType":"uint256"},{"name":"minReturnAmount","type":"uint256","internalType":"uint256"},{"name":"deadLine","type":"uint256","internalType":"uint256"}]},{"name":"batchesAmount","type":"uint256[]","internalType":"uint256[]"},{"name":"batches","type":"tuple[][]","internalType":"struct DexRouter.RouterPath[][]","components":[{"name":"mixAdapters","type":"address[]","internalType":"address[]"},{"name":"assetTo","type":"address[]","internalType":"address[]"},{"name":"rawData","type":"uint256[]","internalType":"uint256[]"},{"name":"extraData","type":"bytes[]","internalType":"bytes[]"},{"name":"fromToken","type":"uint256","internalType":"uint256"}]},{"name":"extraData","type":"tuple[]","internalType":"struct PMMLib.PMMSwapRequest[]","components":[{"name":"pathIndex","type":"uint256","internalType":"uint256"},{"name":"payer","type":"address","internalType":"address"},{"name":"fromToken","type":"address","internalType":"address"},{"name":"toToken","type":"address","internalType":"address"},{"name":"fromTokenAmountMax","type":"uint256","internalType":"uint256"},{"name":"toTokenAmountMax","type":"uint256","internalType":"uint256"},{"name":"salt","type":"uint256","internalType":"uint256"},{"name":"deadLine","type":"uint256","internalType":"uint256"},{"name":"isPushOrder","type":"bool","internalType":"bool"},{"name":"extension","type":"bytes","internalType":"bytes"}]},{"name":"to","type":"address","internalType":"address"}],"outputs":[{"name":"returnAmount","type":"uint256","internalType":"uint256"}],"stateMutability":"payable"},{"type":"function","name":"smartSwapByInvestWithRefund","inputs":[{"name":"baseRequest","type":"tuple","internalType":"struct DexRouter.BaseRequest","components":[{"name":"fromToken","type":"uint256","internalType":"uint256"},{"name":"toToken","type":"address","internalType":"address"},{"name":"fromTokenAmount","type":"uint256","internalType":"uint256"},{"name":"minReturnAmount","type":"uint256","internalType":"uint256"},{"name":"deadLine","type":"uint256","internalType":"uint256"}]},{"name":"batchesAmount","type":"uint256[]","internalType":"uint256[]"},{"name":"batches","type":"tuple[][]","internalType":"struct DexRouter.RouterPath[][]","components":[{"name":"mixAdapters","type":"address[]","internalType":"address[]"},{"name":"assetTo","type":"address[]","internalType":"address[]"},{"name":"rawData","type":"uint256[]","internalType":"uint256[]"},{"name":"extraData","type":"bytes[]","internalType":"bytes[]"},{"name":"fromToken","type":"uint256","internalType":"uint256"}]},{"name":"","type":"tuple[]","internalType":"struct PMMLib.PMMSwapRequest[]","components":[{"name":"pathIndex","type":"uint256","internalType":"uint256"},{"name":"payer","type":"address","internalType":"address"},{"name":"fromToken","type":"address","internalType":"address"},{"name":"toToken","type":"address","internalType":"address"},{"name":"fromTokenAmountMax","type":"uint256","internalType":"uint256"},{"name":"toTokenAmountMax","type":"uint256","internalType":"uint256"},{"name":"salt","type":"uint256","internalType":"uint256"},{"name":"deadLine","type":"uint256","internalType":"uint256"},{"name":"isPushOrder","type":"bool","internalType":"bool"},{"name":"extension","type":"bytes","internalType":"bytes"}]},{"name":"to","type":"address","internalType":"address"},{"name":"refundTo","type":"address","internalType":"address"}],"outputs":[{"name":"returnAmount","type":"uint256","internalType":"uint256"}],"stateMutability":"payable"},{"type":"function","name":"smartSwapByOrderId","inputs":[{"name":"orderId","type":"uint256","internalType":"uint256"},{"name":"baseRequest","type":"tuple","internalType":"struct DexRouter.BaseRequest","components":[{"name":"fromToken","type":"uint256","internalType":"uint256"},{"name":"toToken","type":"address","internalType":"address"},{"name":"fromTokenAmount","type":"uint256","internalType":"uint256"},{"name":"minReturnAmount","type":"uint256","internalType":"uint256"},{"name":"deadLine","type":"uint256","internalType":"uint256"}]},{"name":"batchesAmount","type":"uint256[]","internalType":"uint256[]"},{"name":"batches","type":"tuple[][]","internalType":"struct DexRouter.RouterPath[][]","components":[{"name":"mixAdapters","type":"address[]","internalType":"address[]"},{"name":"assetTo","type":"address[]","internalType":"address[]"},{"name":"rawData","type":"uint256[]","internalType":"uint256[]"},{"name":"extraData","type":"bytes[]","internalType":"bytes[]"},{"name":"fromToken","type":"uint256","internalType":"uint256"}]},{"name":"","type":"tuple[]","internalType":"struct PMMLib.PMMSwapRequest[]","components":[{"name":"pathIndex","type":"uint256","internalType":"uint256"},{"name":"payer","type":"address","internalType":"address"},{"name":"fromToken","type":"address","internalType":"address"},{"name":"toToken","type":"address","internalType":"address"},{"name":"fromTokenAmountMax","type":"uint256","internalType":"uint256"},{"name":"toTokenAmountMax","type":"uint256","internalType":"uint256"},{"name":"salt","type":"uint256","internalType":"uint256"},{"name":"deadLine","type":"uint256","internalType":"uint256"},{"name":"isPushOrder","type":"bool","internalType":"bool"},{"name":"extension","type":"bytes","internalType":"bytes"}]}],"outputs":[{"name":"returnAmount","type":"uint256","internalType":"uint256"}],"stateMutability":"payable"},{"type":"function","name":"smartSwapTo","inputs":[{"name":"orderId","type":"uint256","internalType":"uint256"},{"name":"receiver","type":"address","internalType":"address"},{"name":"baseRequest","type":"tuple","internalType":"struct DexRouter.BaseRequest","components":[{"name":"fromToken","type":"uint256","internalType":"uint256"},{"name":"toToken","type":"address","internalType":"address"},{"name":"fromTokenAmount","type":"uint256","internalType":"uint256"},{"name":"minReturnAmount","type":"uint256","internalType":"uint256"},{"name":"deadLine","type":"uint256","internalType":"uint256"}]},{"name":"batchesAmount","type":"uint256[]","internalType":"uint256[]"},{"name":"batches","type":"tuple[][]","internalType":"struct DexRouter.RouterPath[][]","components":[{"name":"mixAdapters","type":"address[]","internalType":"address[]"},{"name":"assetTo","type":"address[]","internalType":"address[]"},{"name":"rawData","type":"uint256[]","internalType":"uint256[]"},{"name":"extraData","type":"bytes[]","internalType":"bytes[]"},{"name":"fromToken","type":"uint256","internalType":"uint256"}]},{"name":"","type":"tuple[]","internalType":"struct PMMLib.PMMSwapRequest[]","components":[{"name":"pathIndex","type":"uint256","internalType":"uint256"},{"name":"payer","type":"address","internalType":"address"},{"name":"fromToken","type":"address","internalType":"address"},{"name":"toToken","type":"address","internalType":"address"},{"name":"fromTokenAmountMax","type":"uint256","internalType":"uint256"},{"name":"toTokenAmountMax","type":"uint256","internalType":"uint256"},{"name":"salt","type":"uint256","internalType":"uint256"},{"name":"deadLine","type":"uint256","internalType":"uint256"},{"name":"isPushOrder","type":"bool","internalType":"bool"},{"name":"extension","type":"bytes","internalType":"bytes"}]}],"outputs":[{"name":"returnAmount","type":"uint256","internalType":"uint256"}],"stateMutability":"payable"},{"type":"function","name":"swapWrap","inputs":[{"name":"orderId","type":"uint256","internalType":"uint256"},{"name":"rawdata","type":"uint256","internalType":"uint256"}],"outputs":[],"stateMutability":"payable"},{"type":"function","name":"swapWrapToWithBaseRequest","inputs":[{"name":"orderId","type":"uint256","internalType":"uint256"},{"name":"receiver","type":"address","internalType":"address"},{"name":"baseRequest","type":"tuple","internalType":"struct DexRouter.BaseRequest","components":[{"name":"fromToken","type":"uint256","internalType":"uint256"},{"name":"toToken","type":"address","internalType":"address"},{"name":"fromTokenAmount","type":"uint256","internalType":"uint256"},{"name":"minReturnAmount","type":"uint256","internalType":"uint256"},{"name":"deadLine","type":"uint256","internalType":"uint256"}]}],"outputs":[],"stateMutability":"payable"},{"type":"function","name":"uniswapV3SwapCallback","inputs":[{"name":"amount0Delta","type":"int256","internalType":"int256"},{"name":"amount1Delta","type":"int256","internalType":"int256"},{"name":"","type":"bytes","internalType":"bytes"}],"outputs":[],"stateMutability":"nonpayable"},{"type":"function","name":"uniswapV3SwapTo","inputs":[{"name":"receiver","type":"uint256","internalType":"uint256"},{"name":"amount","type":"uint256","internalType":"uint256"},{"name":"minReturn","type":"uint256","internalType":"uint256"},{"name":"pools","type":"uint256[]","internalType":"uint256[]"}],"outputs":[{"name":"returnAmount","type":"uint256","internalType":"uint256"}],"stateMutability":"payable"},{"type":"function","name":"uniswapV3SwapToWithBaseRequest","inputs":[{"name":"orderId","type":"uint256","internalType":"uint256"},{"name":"receiver","type":"address","internalType":"address"},{"name":"baseRequest","type":"tuple","internalType":"struct DexRouter.BaseRequest","components":[{"name":"fromToken","type":"uint256","internalType":"uint256"},{"name":"toToken","type":"address","internalType":"address"},{"name":"fromTokenAmount","type":"uint256","internalType":"uint256"},{"name":"minReturnAmount","type":"uint256","internalType":"uint256"},{"name":"deadLine","type":"uint256","internalType":"uint256"}]},{"name":"pools","type":"uint256[]","internalType":"uint256[]"}],"outputs":[{"name":"returnAmount","type":"uint256","internalType":"uint256"}],"stateMutability":"payable"},{"type":"function","name":"unxswapByOrderId","inputs":[{"name":"srcToken","type":"uint256","internalType":"uint256"},{"name":"amount","type":"uint256","internalType":"uint256"},{"name":"minReturn","type":"uint256","internalType":"uint256"},{"name":"pools","type":"bytes32[]","internalType":"bytes32[]"}],"outputs":[{"name":"returnAmount","type":"uint256","internalType":"uint256"}],"stateMutability":"payable"},{"type":"function","name":"unxswapTo","inputs":[{"name":"srcToken","type":"uint256","internalType":"uint256"},{"name":"amount","type":"uint256","internalType":"uint256"},{"name":"minReturn","type":"uint256","internalType":"uint256"},{"name":"receiver","type":"address","internalType":"address"},{"name":"pools","type":"bytes32[]","internalType":"bytes32[]"}],"outputs":[{"name":"returnAmount","type":"uint256","internalType":"uint256"}],"stateMutability":"payable"},{"type":"function","name":"unxswapToWithBaseRequest","inputs":[{"name":"orderId","type":"uint256","internalType":"uint256"},{"name":"receiver","type":"address","internalType":"address"},{"name":"baseRequest","type":"tuple","internalType":"struct DexRouter.BaseRequest","components":[{"name":"fromToken","type":"uint256","internalType":"uint256"},{"name":"toToken","type":"address","internalType":"address"},{"name":"fromTokenAmount","type":"uint256","internalType":"uint256"},{"name":"minReturnAmount","type":"uint256","internalType":"uint256"},{"name":"deadLine","type":"uint256","internalType":"uint256"}]},{"name":"pools","type":"bytes32[]","internalType":"bytes32[]"}],"outputs":[{"name":"returnAmount","type":"uint256","internalType":"uint256"}],"stateMutability":"payable"},{"type":"function","name":"version","inputs":[],"outputs":[{"name":"","type":"string","internalType":"string"}],"stateMutability":"view"},{"type":"event","name":"CommissionFromTokenRecord","inputs":[{"name":"fromTokenAddress","type":"address","indexed":false,"internalType":"address"},{"name":"commissionAmount","type":"uint256","indexed":false,"internalType":"uint256"},{"name":"referrerAddress","type":"address","indexed":false,"internalType":"address"}],"anonymous":false},{"type":"event","name":"CommissionToTokenRecord","inputs":[{"name":"toTokenAddress","type":"address","indexed":false,"internalType":"address"},{"name":"commissionAmount","type":"uint256","indexed":false,"internalType":"uint256"},{"name":"referrerAddress","type":"address","indexed":false,"internalType":"address"}],"anonymous":false},{"type":"event","name":"OrderRecord","inputs":[{"name":"fromToken","type":"address","indexed":false,"internalType":"address"},{"name":"toToken","type":"address","indexed":false,"internalType":"address"},{"name":"sender","type":"address","indexed":false,"internalType":"address"},{"name":"fromAmount","type":"uint256","indexed":false,"internalType":"uint256"},{"name":"returnAmount","type":"uint256","indexed":false,"internalType":"uint256"}],"anonymous":false},{"type":"event","name":"SwapOrderId","inputs":[{"name":"id","type":"uint256","indexed":false,"internalType":"uint256"}],"anonymous":false},{"type":"error","name":"SafeTransferFailed","inputs":[]}],"bytecode":{"object":"0x608060405234801561001057600080fd5b50617e8f80620000216000396000f3fe60806040526004361061010d5760003560e01c8063918f867411610095578063b881547711610064578063b8815477146103bb578063ca68d8f6146103eb578063e0af361614610416578063e99bfa9514610441578063fa461e331461047157610182565b8063918f8674146103145780639871efa41461033f57806398d2ac621461036f578063b80c2f091461038b57610182565b806344014e98116100dc57806344014e981461023357806354fd4d5014610263578063591b3d081461028e5780636aa47645146102be57806373679b6b146102e957610182565b806301617fab1461018757806303b87e5f146101a357806308298b5a146101d35780630d5f0e3b1461020357610182565b36610182573273ffffffffffffffffffffffffffffffffffffffff163373ffffffffffffffffffffffffffffffffffffffff1603610180576040517f08c379a000000000000000000000000000000000000000000000000000000000815260040161017790615b5d565b60405180910390fd5b005b600080fd5b6101a1600480360381019061019c9190615bc7565b61049a565b005b6101bd60048036038101906101b89190615d9a565b6104fb565b6040516101ca9190615e9b565b60405180910390f35b6101ed60048036038101906101e89190615f0c565b6105f7565b6040516101fa9190615e9b565b60405180910390f35b61021d60048036038101906102189190615fa6565b6107d3565b60405161022a9190615e9b565b60405180910390f35b61024d6004803603810190610248919061602e565b610864565b60405161025a9190615e9b565b60405180910390f35b34801561026f57600080fd5b506102786109f9565b6040516102859190616136565b60405180910390f35b6102a860048036038101906102a39190616a6e565b610a32565b6040516102b59190615e9b565b60405180910390f35b3480156102ca57600080fd5b506102d3610d45565b6040516102e09190616b61565b60405180910390f35b3480156102f557600080fd5b506102fe610d5d565b60405161030b9190616b61565b60405180910390f35b34801561032057600080fd5b50610329610d75565b6040516103369190615e9b565b60405180910390f35b61035960048036038101906103549190616b7c565b610d7d565b6040516103669190615e9b565b60405180910390f35b61038960048036038101906103849190616c04565b610d98565b005b6103a560048036038101906103a09190616c57565b610f9a565b6040516103b29190615e9b565b60405180910390f35b6103d560048036038101906103d09190616d35565b611095565b6040516103e29190615e9b565b60405180910390f35b3480156103f757600080fd5b506104006113ff565b60405161040d9190615e9b565b60405180910390f35b34801561042257600080fd5b5061042b611407565b6040516104389190616b61565b60405180910390f35b61045b60048036038101906104569190616dbe565b61141f565b6040516104689190615e9b565b60405180910390f35b34801561047d57600080fd5b5061049860048036038101906104939190616f1b565b61143a565b005b6000807f8000000000000000000000000000000000000000000000000000000000000000831691506fffffffffffffffffffffffffffffffff831690506104f5843384846fffffffffffffffffffffffffffffffff166116f9565b50505050565b6000876080013542811015610545576040517f08c379a000000000000000000000000000000000000000000000000000000000815260040161053c90616fdb565b60405180910390fd5b7f7724394874fdd8ad13292ec739b441f85c6559f10dc4141b8d4c0fa4cbf55bdb8b6040516105749190615e9b565b60405180910390a16105e733338c8c8036038101906105939190616ffb565b8c8c80806020026020016040519081016040528093929190818152602001838360200280828437600081840152601f19601f820116905080830192505050505050508b8b906105e29190617028565b611b92565b9150509998505050505050505050565b60007f7724394874fdd8ad13292ec739b441f85c6559f10dc4141b8d4c0fa4cbf55bdb60a07fffffffffffffffffffffffff00000000000000000000000000000000000000008916901c60405161064e9190615e9b565b60405180910390a1600080610667600034118686611c84565b9150915060006106768a6120a7565b90508273ffffffffffffffffffffffffffffffffffffffff168173ffffffffffffffffffffffffffffffffffffffff161480156106f3575073eeeeeeeeeeeeeeeeeeeeeeeeeeeeeeeeeeeeeeee73ffffffffffffffffffffffffffffffffffffffff168373ffffffffffffffffffffffffffffffffffffffff1614155b806107755750600073ffffffffffffffffffffffffffffffffffffffff168173ffffffffffffffffffffffffffffffffffffffff16148015610774575073eeeeeeeeeeeeeeeeeeeeeeeeeeeeeeeeeeeeeeee73ffffffffffffffffffffffffffffffffffffffff168373ffffffffffffffffffffffffffffffffffffffff16145b5b6107b4576040517f08c379a00000000000000000000000000000000000000000000000000000000081526004016107ab90617089565b60405180910390fd5b6107c483838b8b338c8c8c6120c7565b93505050509695505050505050565b60007f7724394874fdd8ad13292ec739b441f85c6559f10dc4141b8d4c0fa4cbf55bdb60a07fffffffffffffffffffffffff00000000000000000000000000000000000000008816901c60405161082a9190615e9b565b60405180910390a16000806108436000341186866121f1565b91509150610857338984848b8b8b8b612603565b9250505095945050505050565b60008360800135428110156108ae576040517f08c379a00000000000000000000000000000000000000000000000000000000081526004016108a590616fdb565b60405180910390fd5b7f7724394874fdd8ad13292ec739b441f85c6559f10dc4141b8d4c0fa4cbf55bdb876040516108dd9190615e9b565b60405180910390a16000806108f66000341187876121f1565b915091508173ffffffffffffffffffffffffffffffffffffffff1661091e88600001356120a7565b73ffffffffffffffffffffffffffffffffffffffff1614801561097e57508073ffffffffffffffffffffffffffffffffffffffff1687602001602081019061096691906170a9565b73ffffffffffffffffffffffffffffffffffffffff16145b6109bd576040517f08c379a00000000000000000000000000000000000000000000000000000000081526004016109b490617122565b60405180910390fd5b6109eb338973ffffffffffffffffffffffffffffffffffffffff1684848b604001358c606001358c8c612603565b935050505095945050505050565b6040518060400160405280600a81526020017f76312e302e352d7465650000000000000000000000000000000000000000000081525081565b6000866080015142811015610a7c576040517f08c379a0000000000000000000000000000000000000000000000000000000008152600401610a7390616fdb565b60405180910390fd5b6000610a8b89600001516120a7565b905073eeeeeeeeeeeeeeeeeeeeeeeeeeeeeeeeeeeeeeee73ffffffffffffffffffffffffffffffffffffffff168173ffffffffffffffffffffffffffffffffffffffff1603610b0f576040517f08c379a0000000000000000000000000000000000000000000000000000000008152600401610b069061718e565b60405180910390fd5b600073ffffffffffffffffffffffffffffffffffffffff168473ffffffffffffffffffffffffffffffffffffffff1603610b7e576040517f08c379a0000000000000000000000000000000000000000000000000000000008152600401610b75906171fa565b60405180910390fd5b600073ffffffffffffffffffffffffffffffffffffffff168573ffffffffffffffffffffffffffffffffffffffff1603610bed576040517f08c379a0000000000000000000000000000000000000000000000000000000008152600401610be490617266565b60405180910390fd5b6000896040015111610c34576040517f08c379a0000000000000000000000000000000000000000000000000000000008152600401610c2b906172d2565b60405180910390fd5b60008173ffffffffffffffffffffffffffffffffffffffff166370a08231306040518263ffffffff1660e01b8152600401610c6f9190616b61565b602060405180830381865afa158015610c8c573d6000803e3d6000fd5b505050506040513d601f19601f82011682018060405250810190610cb09190617307565b905060005b8951811015610d1d578a60400151828b8381518110610cd757610cd6617334565b5b6020026020010151610ce99190617392565b610cf39190617403565b8a8281518110610d0657610d05617334565b5b602002602001018181525050806001019050610cb5565b50808a6040018181525050610d368a8a8a30898b61266e565b93505050509695505050505050565b7370cbb871e8f30fc8ce23609e9e0ea87b6b222f5881565b735703b683c7f928b721ca95da988d73a3299d475781565b633b9aca0081565b6000610d8d8686863387876105f7565b905095945050505050565b806080013542811015610de0576040517f08c379a0000000000000000000000000000000000000000000000000000000008152600401610dd790616fdb565b60405180910390fd5b6000808360000135905073eeeeeeeeeeeeeeeeeeeeeeeeeeeeeeeeeeeeeeee73ffffffffffffffffffffffffffffffffffffffff168173ffffffffffffffffffffffffffffffffffffffff16148015610e8a575073c02aaa39b223fe8d0a0e5c4f27ead9083c756cc273ffffffffffffffffffffffffffffffffffffffff16846020016020810190610e7291906170a9565b73ffffffffffffffffffffffffffffffffffffffff16145b15610e985760009150610f82565b73c02aaa39b223fe8d0a0e5c4f27ead9083c756cc273ffffffffffffffffffffffffffffffffffffffff168173ffffffffffffffffffffffffffffffffffffffff16148015610f38575073eeeeeeeeeeeeeeeeeeeeeeeeeeeeeeeeeeeeeeee73ffffffffffffffffffffffffffffffffffffffff16846020016020810190610f2091906170a9565b73ffffffffffffffffffffffffffffffffffffffff16145b15610f465760019150610f81565b6040517f08c379a0000000000000000000000000000000000000000000000000000000008152600401610f7890617480565b60405180910390fd5b5b610f9286868487604001356116f9565b505050505050565b6000876080013542811015610fe4576040517f08c379a0000000000000000000000000000000000000000000000000000000008152600401610fdb90616fdb565b60405180910390fd5b7f7724394874fdd8ad13292ec739b441f85c6559f10dc4141b8d4c0fa4cbf55bdb8a6040516110139190615e9b565b60405180910390a16110863333338c8036038101906110329190616ffb565b8c8c80806020026020016040519081016040528093929190818152602001838360200280828437600081840152601f19601f820116905080830192505050505050508b8b906110819190617028565b611b92565b91505098975050505050505050565b60008360800135428110156110df576040517f08c379a00000000000000000000000000000000000000000000000000000000081526004016110d690616fdb565b60405180910390fd5b7f7724394874fdd8ad13292ec739b441f85c6559f10dc4141b8d4c0fa4cbf55bdb8760405161110e9190615e9b565b60405180910390a1600080611127600034118787611c84565b91509150600061113a88600001356120a7565b90508273ffffffffffffffffffffffffffffffffffffffff168173ffffffffffffffffffffffffffffffffffffffff161480156111b7575073eeeeeeeeeeeeeeeeeeeeeeeeeeeeeeeeeeeeeeee73ffffffffffffffffffffffffffffffffffffffff168373ffffffffffffffffffffffffffffffffffffffff1614155b806112395750600073ffffffffffffffffffffffffffffffffffffffff168173ffffffffffffffffffffffffffffffffffffffff16148015611238575073eeeeeeeeeeeeeeeeeeeeeeeeeeeeeeeeeeeeeeee73ffffffffffffffffffffffffffffffffffffffff168373ffffffffffffffffffffffffffffffffffffffff16145b5b611278576040517f08c379a000000000000000000000000000000000000000000000000000000000815260040161126f906174ec565b60405180910390fd5b8173ffffffffffffffffffffffffffffffffffffffff168860200160208101906112a291906170a9565b73ffffffffffffffffffffffffffffffffffffffff16148015611305575073eeeeeeeeeeeeeeeeeeeeeeeeeeeeeeeeeeeeeeee73ffffffffffffffffffffffffffffffffffffffff168273ffffffffffffffffffffffffffffffffffffffff1614155b806113995750600073ffffffffffffffffffffffffffffffffffffffff1688602001602081019061133691906170a9565b73ffffffffffffffffffffffffffffffffffffffff16148015611398575073eeeeeeeeeeeeeeeeeeeeeeeeeeeeeeeeeeeeeeee73ffffffffffffffffffffffffffffffffffffffff168273ffffffffffffffffffffffffffffffffffffffff16145b5b6113d8576040517f08c379a00000000000000000000000000000000000000000000000000000000081526004016113cf90617558565b60405180910390fd5b6113f083838a604001358b60600135338e8d8d6120c7565b94505050505095945050505050565b6301c9c38081565b73c02aaa39b223fe8d0a0e5c4f27ead9083c756cc281565b600061142f868686868687610a32565b905095945050505050565b611511565b3d6000803e3d6000fd5b7fa9059cbb70a08231000000000000000000000000000000000000000000000000815230816008015260206000602483600401855afa61148c5761148b61143f565b5b60005160008111156114bd5760a4358083600401528183602401526114bb602060006044866000895af16114c2565b505b505050565b806114d0576114cf61143f565b5b600160005114601f3d11163d15178061150d577ff27f64e40000000000000000000000000000000000000000000000000000000060005260046000fd5b5050565b604051601581017f0dfe1681d21220a7ddca3f43a9059cbb0a5ea466000000000000000000000000825260206000600484335afa6115525761155161143f565b5b6020806004808501335afa61156a5761156961143f565b5b60206040600460088501335afa6115845761158361143f565b5b60008060008813600181146115a05760205192508791506115a9565b60005192508891505b507fff1f98431c8ad98523631ae4a59f267346ea31f98400000000000000000000008452606060002083527fe34f199b19b2b4f47f68442619d555527d244f78a3297ea89325f843f87b8b54602084015273ffffffffffffffffffffffffffffffffffffffff6055852016338114611645577fb2c027220000000000000000000000000000000000000000000000000000000060005260046000fd5b6084357f0dfe1681d21220a7ddca3f43a9059cbb0a5ea4660000000000000000000000008652308114600181146116be578460148801528160348801523360548801528360748801526116b960206000608460108b0160007370cbb871e8f30fc8ce23609e9e0ea87b6b222f585af16114c2565b6116ec565b3360108801528360308801526116e1602060006044600c8b0160008a5af16114c2565b6116eb8588611449565b5b5050505050505050505050565b6000811161173c576040517f08c379a0000000000000000000000000000000000000000000000000000000008152600401611733906175c4565b60405180910390fd5b60006117466129b5565b90506000836117695773eeeeeeeeeeeeeeeeeeeeeeeeeeeeeeeeeeeeeeee61177f565b73c02aaa39b223fe8d0a0e5c4f27ead9083c756cc25b90506000846117a25773c02aaa39b223fe8d0a0e5c4f27ead9083c756cc26117b8565b73eeeeeeeeeeeeeeeeeeeeeeeeeeeeeeeeeeeeeeee5b90506117c5838383612bbe565b6000806117d485338a89612ca4565b9150915086156119f0577370cbb871e8f30fc8ce23609e9e0ea87b6b222f5873ffffffffffffffffffffffffffffffffffffffff16630a5ea46673c02aaa39b223fe8d0a0e5c4f27ead9083c756cc233735703b683c7f928b721ca95da988d73a3299d47578a6040518563ffffffff1660e01b815260040161185994939291906175e4565b600060405180830381600087803b15801561187357600080fd5b505af1158015611887573d6000803e3d6000fd5b50505050735703b683c7f928b721ca95da988d73a3299d475773ffffffffffffffffffffffffffffffffffffffff16632e1a7d4d876040518263ffffffff1660e01b81526004016118d89190615e9b565b600060405180830381600087803b1580156118f257600080fd5b505af1158015611906573d6000803e3d6000fd5b505050503073ffffffffffffffffffffffffffffffffffffffff168273ffffffffffffffffffffffffffffffffffffffff16146119eb5760008273ffffffffffffffffffffffffffffffffffffffff16476040516119639061765a565b60006040518083038185875af1925050503d80600081146119a0576040519150601f19603f3d011682016040523d82523d6000602084013e6119a5565b606091505b50509050806119e9576040517f08c379a00000000000000000000000000000000000000000000000000000000081526004016119e0906176bb565b60405180910390fd5b505b611b05565b8460000151611a3c57853414611a3b576040517f08c379a0000000000000000000000000000000000000000000000000000000008152600401611a3290617727565b60405180910390fd5b5b73c02aaa39b223fe8d0a0e5c4f27ead9083c756cc273ffffffffffffffffffffffffffffffffffffffff1663d0e30db0876040518263ffffffff1660e01b81526004016000604051808303818588803b158015611a9857600080fd5b505af1158015611aac573d6000803e3d6000fd5b50505050503073ffffffffffffffffffffffffffffffffffffffff168273ffffffffffffffffffffffffffffffffffffffff1614611b0457611b0373c02aaa39b223fe8d0a0e5c4f27ead9083c756cc2838861337c565b5b5b611b108589836133ca565b507f7724394874fdd8ad13292ec739b441f85c6559f10dc4141b8d4c0fa4cbf55bdb89604051611b409190615e9b565b60405180910390a17f1bb43f2da90e35f7b0cf38521ca95a49e68eb42fac49924930a5bd73cdf7576c848432898a604051611b7f959493929190617747565b60405180910390a1505050505050505050565b60008073ffffffffffffffffffffffffffffffffffffffff168573ffffffffffffffffffffffffffffffffffffffff1603611c02576040517f08c379a0000000000000000000000000000000000000000000000000000000008152600401611bf9906177e6565b60405180910390fd5b6000611c0c6129b5565b9050611c2981611c1f87600001516120a7565b8760200151612bbe565b600080611c3c838b8a8a60400151612ca4565b9150915060008a90506000611c55898989858f8961266e565b90506000611c64868c866133ca565b90508082611c729190617806565b96505050505050509695505050505050565b60008060008484905011611ccd576040517f08c379a0000000000000000000000000000000000000000000000000000000008152600401611cc490617886565b60405180910390fd5b600073ffffffffffffffffffffffffffffffffffffffff85856000818110611cf857611cf7617334565b5b9050602002013560001c1690506000807f800000000000000000000000000000000000000000000000000000000000000087876000818110611d3d57611d3c617334565b5b9050602002013560001c161415905080611dc5578173ffffffffffffffffffffffffffffffffffffffff16630dfe16816040518163ffffffff1660e01b8152600401602060405180830381865afa158015611d9c573d6000803e3d6000fd5b505050506040513d601f19601f82011682018060405250810190611dc091906178bb565b611e35565b8173ffffffffffffffffffffffffffffffffffffffff1663d21220a76040518163ffffffff1660e01b8152600401602060405180830381865afa158015611e10573d6000803e3d6000fd5b505050506040513d601f19601f82011682018060405250810190611e3491906178bb565b5b935073c02aaa39b223fe8d0a0e5c4f27ead9083c756cc273ffffffffffffffffffffffffffffffffffffffff168473ffffffffffffffffffffffffffffffffffffffff16148015611e835750865b15611ea05773eeeeeeeeeeeeeeeeeeeeeeeeeeeeeeeeeeeeeeee93505b60008686600189899050611eb49190617806565b818110611ec457611ec3617334565b5b905060200201359050600073ffffffffffffffffffffffffffffffffffffffff8260001c1690506000807f80000000000000000000000000000000000000000000000000000000000000008460001c161415905080611f91578173ffffffffffffffffffffffffffffffffffffffff1663d21220a76040518163ffffffff1660e01b8152600401602060405180830381865afa158015611f68573d6000803e3d6000fd5b505050506040513d601f19601f82011682018060405250810190611f8c91906178bb565b612001565b8173ffffffffffffffffffffffffffffffffffffffff16630dfe16816040518163ffffffff1660e01b8152600401602060405180830381865afa158015611fdc573d6000803e3d6000fd5b505050506040513d601f19601f8201168201806040525081019061200091906178bb565b5b95506000807f40000000000000000000000000000000000000000000000000000000000000008560001c161415905073c02aaa39b223fe8d0a0e5c4f27ead9083c756cc273ffffffffffffffffffffffffffffffffffffffff168773ffffffffffffffffffffffffffffffffffffffff1614801561207c5750805b156120995773eeeeeeeeeeeeeeeeeeeeeeeeeeeeeeeeeeeeeeee96505b505050505050935093915050565b600073ffffffffffffffffffffffffffffffffffffffff82169050919050565b60008073ffffffffffffffffffffffffffffffffffffffff168473ffffffffffffffffffffffffffffffffffffffff1603612137576040517f08c379a000000000000000000000000000000000000000000000000000000000815260040161212e906177e6565b60405180910390fd5b60006121416129b5565b905061214e818b8b612bbe565b60008061215d8389898d612ca4565b9150915060006121c173eeeeeeeeeeeeeeeeeeeeeeeeeeeeeeeeeeeeeeee73ffffffffffffffffffffffffffffffffffffffff168e73ffffffffffffffffffffffffffffffffffffffff16146121b3578d6121b6565b60005b8c8c8a8a8e896138be565b905060006121d0858a856133ca565b905080826121de9190617806565b9550505050505098975050505050505050565b6000806000848490501161223a576040517f08c379a000000000000000000000000000000000000000000000000000000000815260040161223190617886565b60405180910390fd5b600073ffffffffffffffffffffffffffffffffffffffff8585600081811061226557612264617334565b5b905060200201351690506000807f8000000000000000000000000000000000000000000000000000000000000000878760008181106122a7576122a6617334565b5b90506020020135161490508061232b578173ffffffffffffffffffffffffffffffffffffffff1663d21220a76040518163ffffffff1660e01b8152600401602060405180830381865afa158015612302573d6000803e3d6000fd5b505050506040513d601f19601f8201168201806040525081019061232691906178bb565b61239b565b8173ffffffffffffffffffffffffffffffffffffffff16630dfe16816040518163ffffffff1660e01b8152600401602060405180830381865afa158015612376573d6000803e3d6000fd5b505050506040513d601f19601f8201168201806040525081019061239a91906178bb565b5b935073c02aaa39b223fe8d0a0e5c4f27ead9083c756cc273ffffffffffffffffffffffffffffffffffffffff168473ffffffffffffffffffffffffffffffffffffffff161480156123e95750865b156124065773eeeeeeeeeeeeeeeeeeeeeeeeeeeeeeeeeeeeeeee93505b6000868660018989905061241a9190617806565b81811061242a57612429617334565b5b905060200201359050600073ffffffffffffffffffffffffffffffffffffffff821690506000807f80000000000000000000000000000000000000000000000000000000000000008416149050806124f0578173ffffffffffffffffffffffffffffffffffffffff16630dfe16816040518163ffffffff1660e01b8152600401602060405180830381865afa1580156124c7573d6000803e3d6000fd5b505050506040513d601f19601f820116820180604052508101906124eb91906178bb565b612560565b8173ffffffffffffffffffffffffffffffffffffffff1663d21220a76040518163ffffffff1660e01b8152600401602060405180830381865afa15801561253b573d6000803e3d6000fd5b505050506040513d601f19601f8201168201806040525081019061255f91906178bb565b5b95506000807f200000000000000000000000000000000000000000000000000000000000000085161415905073c02aaa39b223fe8d0a0e5c4f27ead9083c756cc273ffffffffffffffffffffffffffffffffffffffff168773ffffffffffffffffffffffffffffffffffffffff161480156125d85750805b156125f55773eeeeeeeeeeeeeeeeeeeeeeeeeeeeeeeeeeeeeeee96505b505050505050935093915050565b60008061260e6129b5565b905061261b818989612bbe565b60008061262a838d8d8b612ca4565b91509150600061263e8d848b8b8b8b614596565b9050600061264d858e856133ca565b9050808261265b9190617806565b9550505050505098975050505050505050565b60008087905060008160400151116126bb576040517f08c379a00000000000000000000000000000000000000000000000000000000081526004016126b29061795a565b60405180910390fd5b60006126ca82600001516120a7565b90506126f984836020015173ffffffffffffffffffffffffffffffffffffffff16614d0190919063ffffffff16565b925061270481614db3565b156127865773c02aaa39b223fe8d0a0e5c4f27ead9083c756cc273ffffffffffffffffffffffffffffffffffffffff1663d0e30db083604001516040518263ffffffff1660e01b81526004016000604051808303818588803b15801561276957600080fd5b505af115801561277d573d6000803e3d6000fd5b50505050503095505b600080600090505b89518110156127ca578981815181106127aa576127a9617334565b5b6020026020010151826127bd919061797a565b915080600101905061278e565b508260400151811115612812576040517f08c379a000000000000000000000000000000000000000000000000000000000815260040161280990617a20565b60405180910390fd5b508651885114612857576040517f08c379a000000000000000000000000000000000000000000000000000000000815260040161284e90617a8c565b60405180910390fd5b60005b87518110156128d2576128c787878761288c876020015173ffffffffffffffffffffffffffffffffffffffff16614db3565b8d868151811061289f5761289e617334565b5b60200260200101518d87815181106128ba576128b9617334565b5b6020026020010151614dff565b80600101905061285a565b506128e1826020015185614fb1565b8261290f85846020015173ffffffffffffffffffffffffffffffffffffffff16614d0190919063ffffffff16565b6129199190617806565b92508160600151831015612962576040517f08c379a000000000000000000000000000000000000000000000000000000000815260040161295990617af8565b60405180910390fd5b7f1bb43f2da90e35f7b0cf38521ca95a49e68eb42fac49924930a5bd73cdf7576c818360200151328560400151876040516129a1959493929190617747565b60405180910390a150509695505050505050565b6129bd615a73565b60203603357fffffffffffff000000000000000000000000000000000000000000000000000081167f22220afc2bbb000000000000000000000000000000000000000000000000000081147f22220afc2aaa00000000000000000000000000000000000000000000000000008214177f22220afc2aaa000000000000000000000000000000000000000000000000000082147f3ca20afc2aaa000000000000000000000000000000000000000000000000000083141784527f22220afc2bbb000000000000000000000000000000000000000000000000000082147f3ca20afc2bbb0000000000000000000000000000000000000000000000000000831417846020015279ffffffffffff0000000000000000000000000000000000000000831660a01c846040015273ffffffffffffffffffffffffffffffffffffffff831684606001526040360335925060007f80000000000000000000000000000000000000000000000000000000000000008416118460e0015273ffffffffffffffffffffffffffffffffffffffff831684608001526001811460018114612b6f5760008560a0015260008560c00152612bb7565b606036033579ffffffffffff0000000000000000000000000000000000000000811660a01c8660a0015273ffffffffffffffffffffffffffffffffffffffff81168660c00152505b5050505090565b82600001518015612bfe57508173ffffffffffffffffffffffffffffffffffffffff16836080015173ffffffffffffffffffffffffffffffffffffffff16145b80612c45575082602001518015612c4457508073ffffffffffffffffffffffffffffffffffffffff16836080015173ffffffffffffffffffffffffffffffffffffffff16145b5b80612c6057508260000151158015612c5f57508260200151155b5b612c9f576040517f08c379a0000000000000000000000000000000000000000000000000000000008152600401612c9690617b64565b60405180910390fd5b505050565b600080856020015115612cc95730612cc087608001513061535b565b91509150613373565b8560000151612cde5783600091509150613373565b61309e565b6000828202905083838383041483151702612d065763ad251c276000526004601cfd5b83810490509392505050565b600082821015612d2a576346e72d036000526004601cfd5b828203905092915050565b600061010073eeeeeeeeeeeeeeeeeeeeeeeeeeeeeeeeeeeeeeee8314026010840285808201830193505050509392505050565b7f08c379a0000000000000000000000000000000000000000000000000000000006000527c200000000000000000000000000000000000000000000000000000000060205280604052816000fd5b60008060008085855af160008103612df157612df060607c1c20636f6d6d697373696f6e2077697468206574686572206572726f72612d68565b5b505050565b604051608481016040527f0a5ea46600000000000000000000000000000000000000000000000000000000815281600482015282602482015283604482015284606482015260008060848360007370cbb871e8f30fc8ce23609e9e0ea87b6b222f585af160008103612e8b57612e8a60577c13636c61696d20746f6b656e73206661696c6564000000000000000000612d68565b5b505050505050565b600080604051604881016040527fa9059cbba9059cbb70a082310000000000000000000000000000000000000000815230600c82015260206000602460088401875afa60008103612f0757612f0660587c146765742062616c616e63654f66206661696c65640000000000000000612d68565b5b600051898801612f32670de0b6b3a764000083612f2d84670de0b6b3a76400008e612ce3565b612ce3565b955081861115612f6557612f6460597c15696e76616c696420616d6f756e74315363616c656400000000000000612d68565b5b8760088501528560288501526020600060446004870160008b5af1925082601f3d1160016000511416151615612f9e573d873b15171592505b60008303612fcf57612fce605f7c1b7472616e7366657220746f6b656e2072656665726572206661696c00612d68565b5b60008a111561304c57612fe28683612d12565b94508960048501528460248501526020600060448660008b5af1925082601f3d116001600051141615161561301a573d873b15171592505b6000830361304b5761304a605f7c1b7472616e7366657220746f6b656e2072656665726572206661696c00612d68565b5b5b505050509550959350505050565b604051606081016040528181528260208201528360408201527f0d3b1268ca3dbb6d3d8a0ea35f44f8f9d58cf578d732680b71b6904fb2733e0d606082a150505050565b6000806080880151915060e0880151600060a08a0151116130c0818386612d35565b9250505060008060008060408c015160a08d01516301c9c380818301111561310b5761310a605f7c1b6572726f7220636f6d6d697373696f6e2072617465206c696d697400612d68565b5b60608e01519550808201633b9aca0003828c0204935060c08e01519450808201633b9aca0003818c0204925050508461010081146131ab5761010181146131d957610110811461323057610111811461325e57600081146132b557600181146132d157601081146133045760118114613330576131a660527c0e696e76616c6964207374617475730000000000000000000000000000612d68565b613364565b6131b58386612db6565b6131d4858473eeeeeeeeeeeeeeeeeeeeeeeeeeeeeeeeeeeeeeee61305a565b613364565b6131e38386612db6565b613202858473eeeeeeeeeeeeeeeeeeeeeeeeeeeeeeeeeeeeeeee61305a565b61320c8285612db6565b61322b848373eeeeeeeeeeeeeeeeeeeeeeeeeeeeeeeeeeeeeeee61305a565b613364565b61323a8386612db6565b613259858473eeeeeeeeeeeeeeeeeeeeeeeeeeeeeeeeeeeeeeee61305a565b613364565b6132688386612db6565b613287858473eeeeeeeeeeeeeeeeeeeeeeeeeeeeeeeeeeeeeeee61305a565b6132918285612db6565b6132b0848373eeeeeeeeeeeeeeeeeeeeeeeeeeeeeeeeeeeeeeee61305a565b613364565b6132c183868e8a612df6565b6132cc85848961305a565b613364565b6132dd83868e8a612df6565b6132e885848961305a565b6132f482858e8a612df6565b6132ff84838961305a565b613364565b61331083308e8a612df6565b61331e60008085888b612e93565b61332987838b61305a565b5050613364565b61333e828401308e8a612df6565b61334b828585888b612e93565b61335687838b61305a565b61336186828b61305a565b50505b50505050505050836000915091505b94509492505050565b61338f8363a9059cbb60e01b8484615455565b6133c5576040517ffb7f507900000000000000000000000000000000000000000000000000000000815260040160405180910390fd5b505050565b600083602001516133de57600090506138b7565b613431565b7f08c379a0000000000000000000000000000000000000000000000000000000006000527c200000000000000000000000000000000000000000000000000000000060205280604052816000fd5b604084015160a08501516301c9c380818301111561347257613471605f7c1b6572726f7220636f6d6d697373696f6e2072617465206c696d6974006133e3565b5b608086015160608701516040516060810160405273eeeeeeeeeeeeeeeeeeeeeeeeeeeeeeeeeeeeeeee83146001811461372b57604051604c81016040527fa9059cbba9059cbba9059cbb70a08231000000000000000000000000000000008152306010820152602060006024600c8401885afa600081036135165761351560587c146765742062616c616e63654f66206661696c656400000000000000006133e3565b5b6000518a81101561354a57613549604d7c0a737562206661696c65640000000000000000000000000000000000006133e3565b5b8a8103633b9aca008a8202049a5086600c8501528a602c8501526020600060446008870160008c5af1925082601f3d1160016000511416151615613591573d883b15171592505b600083036135c2576135c1605f7c1b7472616e7366657220746f6b656e2072656665726572206661696c006133e3565b5b8786528a60208701528660408701527ff171268de859ec269c52bbfac94dcb7715e784de194342abb284bf34fd30b32d606087a160008911156136b35760c08e0151633b9aca008a830204808d019c508160088701528060288701526020600060446004890160008e5af1945084601f3d116001600051141615161561364b573d8a3b15171594505b6000850361367c5761367b605f7c1b7472616e7366657220746f6b656e2072656665726572206661696c006133e3565b5b8988528060208901528160408901527ff171268de859ec269c52bbfac94dcb7715e784de194342abb284bf34fd30b32d606089a150505b8c60601b60601c60048501528a810360248501526020600060448660008c5af1925082601f3d11600160005114161516156136f1573d883b15171592505b600083036137225761372160607c1c7472616e7366657220746f6b656e207265636569766572206661696c6133e3565b5b505050506138b0565b8747101561375c5761375b604d7c0a737562206661696c65640000000000000000000000000000000000006133e3565b5b874703633b9aca008782020497506000806000808b885af1600081036137a5576137a4605d7c197472616e73666572206574682072656665726572206661696c0000006133e3565b5b8584528860208501528460408501527ff171268de859ec269c52bbfac94dcb7715e784de194342abb284bf34fd30b32d606085a160008711156138685760c08c0151633b9aca0088840204808b019a5060008060008084865af1600081036138305761382f605d7c197472616e73666572206574682072656665726572206661696c0000006133e3565b5b8887528160208801528260408801527ff171268de859ec269c52bbfac94dcb7715e784de194342abb284bf34fd30b32d606088a15050505b6000806000808c86038f60601b60601c5af19050600081036138ad576138ac605e7c1a7472616e7366657220657468207265636569766572206661696c00006133e3565b5b50505b5050505050505b9392505050565b6000613c22565b7f08c379a0000000000000000000000000000000000000000000000000000000006000527c200000000000000000000000000000000000000000000000000000000060205280604052816000fd5b600083825260206000600484600401865afa6139525761395160547c1067657420746f6b656e206661696c65640000000000000000000000006138c5565b5b60005190509392505050565b6000807f70a082310dfe1681000000000000000000000000000000000000000000000000835260206000600485600401875afa6139be576139bd60567c12746f6b656e302063616c6c206661696c6564000000000000000000006138c5565b5b600051915083836004015260206000602485855afa613a00576139ff60597c1562616c616e63654f662063616c6c206661696c6564000000000000006138c5565b5b60005190509250929050565b6000807f70a08231d21220a7000000000000000000000000000000000000000000000000835260206000600485600401875afa613a6c57613a6b60567c12746f6b656e312063616c6c206661696c6564000000000000000000006138c5565b5b600051915083836004015260206000602485855afa613aae57613aad60597c1562616c616e63654f662063616c6c206661696c6564000000000000006138c5565b5b60005190509250929050565b60007f022c0d9f0902f1ac000000000000000000000000000000000000000000000000825260406000600484600401875afa613b1957613b1860587c1472657365727665732063616c6c206661696c656400000000000000006138c5565b5b6000516020518660008114613b4d578915613b4057613b388786613a0c565b838103975050505b8282935080925050613b66565b8815613b6557613b5d878661395e565b848103975050505b5b508985029250633b9aca00820283018184020492507f022c0d9f0902f1ac00000000000000000000000000000000000000000000000084528660008114613bb95783600486015260006024860152613bc7565b600060048601528360248601525b508a6044850152608060648501526000608485015260008060a48660008a5af1613c1457613c1360547c10737761702063616c6c206661696c65640000000000000000000000006138c5565b5b505098975050505050505050565b60008085879250602081028301915060008103613c6357613c62604e7d0b656d70747920706f6f6c730000000000000000000000000000000000006138c5565b5b5060405182358b60001460018114613d46573415613ca457613ca360557c11696e76616c6964206d73672e76616c756500000000000000000000006138c5565b5b7f0a5ea4660000000000000000000000000000000000000000000000000000000083528c600484015287602484015273ffffffffffffffffffffffffffffffffffffffff821660448401528b606484015260008060848560007370cbb871e8f30fc8ce23609e9e0ea87b6b222f585af1613d4157613d4060567c12636c61696d20746f6b656e206661696c6564000000000000000000006138c5565b5b613e59565b60018c341003613d7957613d7860557c11696e76616c6964206d73672e76616c756500000000000000000000006138c5565b5b7fa9059cbbd0e30db0000000000000000000000000000000000000000000000000835260008060048086018f73c02aaa39b223fe8d0a0e5c4f27ead9083c756cc25af1613de957613de860567c126465706f73697420455448206661696c6564000000000000000000006138c5565b5b73ffffffffffffffffffffffffffffffffffffffff821683600401528b836024015260206000604485600073c02aaa39b223fe8d0a0e5c4f27ead9083c756cc25af1613e5857613e5760587c147472616e736665722057455448206661696c656400000000000000006138c5565b5b5b508a9450602084015b83811015613f3c578035613f2b73ffffffffffffffffffffffffffffffffffffffff821677ffffffff0000000000000000000000000000000000000000851660a01c7f200000000000000000000000000000000000000000000000000000000000000086167f100000000000000000000000000000000000000000000000000000000000000087167f8000000000000000000000000000000000000000000000000000000000000000881673ffffffffffffffffffffffffffffffffffffffff89168d8b613aba565b965080925050602081019050613e62565b5060007f400000000000000000000000000000000000000000000000000000000000000082166000811461413b57600091506140173077ffffffff0000000000000000000000000000000000000000851660a01c7f200000000000000000000000000000000000000000000000000000000000000086167f100000000000000000000000000000000000000000000000000000000000000087167f8000000000000000000000000000000000000000000000000000000000000000881673ffffffffffffffffffffffffffffffffffffffff89168d8b613aba565b96507f2e1a7d4da9059cbb0000000000000000000000000000000000000000000000008452735703b683c7f928b721ca95da988d73a3299d4757600885015286602885015260206000604486600401600073c02aaa39b223fe8d0a0e5c4f27ead9083c756cc25af16140ac576140ab60587c147472616e736665722057455448206661696c656400000000000000006138c5565b5b866004850152602060006024866000735703b683c7f928b721ca95da988d73a3299d47575af16140ff576140fe60577c13776974686472617720455448206661696c65640000000000000000006138c5565b5b6000806000808a8c5af16141365761413560577c137472616e7366657220455448206661696c65640000000000000000006138c5565b5b614514565b60007f8000000000000000000000000000000000000000000000000000000000000000841660008114614250577f100000000000000000000000000000000000000000000000000000000000000085161561424b577f70a082310dfe168100000000000000000000000000000000000000000000000086526020600060048860040173ffffffffffffffffffffffffffffffffffffffff89165afa6142035761420260567c12746f6b656e302063616c6c206661696c6564000000000000000000006138c5565b5b600051935089866004015260206000602488875afa6142455761424460567c15746f6b656e302062616c616e6365206661696c6564000000000000006138c5565b5b60005191505b614334565b7f2000000000000000000000000000000000000000000000000000000000000000851615614333577f70a08231d21220a700000000000000000000000000000000000000000000000086526020600060048860040173ffffffffffffffffffffffffffffffffffffffff89165afa6142eb576142ea60567c12746f6b656e312063616c6c206661696c6564000000000000000000006138c5565b5b600051935089866004015260206000602488875afa61432d5761432c60597c15746f6b656e312062616c616e6365206661696c6564000000000000006138c5565b5b60005191505b5b506143de8977ffffffff0000000000000000000000000000000000000000861660a01c7f200000000000000000000000000000000000000000000000000000000000000087167f100000000000000000000000000000000000000000000000000000000000000088167f8000000000000000000000000000000000000000000000000000000000000000891673ffffffffffffffffffffffffffffffffffffffff8a168e8c613aba565b975082600010600181146144a9577f800000000000000000000000000000000000000000000000000000000000000085166000811461445f576144587f70a082310dfe168100000000000000000000000000000000000000000000000073ffffffffffffffffffffffffffffffffffffffff881689613913565b94506144a3565b6144a07f70a08231d21220a700000000000000000000000000000000000000000000000073ffffffffffffffffffffffffffffffffffffffff881689613913565b94505b50614511565b7f70a082310dfe1681000000000000000000000000000000000000000000000000865289866004015260206000602488875afa6145095761450860587c146765742062616c616e63654f66206661696c656400000000000000006138c5565b5b816000510398505b50505b508a86101561454657614545605a7c164d696e2072657475726e206e6f7420726561636865640000000000006138c5565b5b8c83528060208401523260408401528b60608401528560808401527f1bb43f2da90e35f7b0cf38521ca95a49e68eb42fac49924930a5bd73cdf7576c60a084a15050505050979650505050505050565b6000614bbf565b7f08c379a0000000000000000000000000000000000000000000000000000000006000527c200000000000000000000000000000000000000000000000000000000060205280604052816000fd5b6000857f7fffffffffffffffffffffffffffffffffffffffffffffffffffffffffffffff101561463f577fb3f79fd00000000000000000000000000000000000000000000000000000000060005260046000fd5b60405160007f800000000000000000000000000000000000000000000000000000000000000087161473ffffffffffffffffffffffffffffffffffffffff87168160018114614717577f128acb0800000000000000000000000000000000000000000000000000000000845260048401868152600060208201528a604082015273fffd8963efd1fc6a506488495d951d5263988d25606082015260a06080820152604060a08201528760c08201528860e0820152600080610104876000875af18061470a5760206000fd5b60206000803e5050614793565b7f128acb0800000000000000000000000000000000000000000000000000000000845260048401868152600160208201528a60408201526401000276a4606082015260a06080820152604060a08201528760c08201528860e0820152600080610104876000875af18061478a5760206000fd5b60208060003e50505b5060005193507f80000000000000000000000000000000000000000000000000000000000000008410156147eb577f88c8ee9c0000000000000000000000000000000000000000000000000000000060005260046000fd5b8319600101935050505095945050505050565b600181341003614832577f1841b4e10000000000000000000000000000000000000000000000000000000060005260046000fd5b6000806000808473c02aaa39b223fe8d0a0e5c4f27ead9083c756cc25af18061487e5761487d60577c1357455448206465706f736974206661696c656400000000000000000061459d565b5b5050565b604051600481017f2e1a7d4da9059cbb0000000000000000000000000000000000000000000000008252735703b683c7f928b721ca95da988d73a3299d47576004820152836024820152600080604483600073c02aaa39b223fe8d0a0e5c4f27ead9083c756cc25af1806149195761491860587c147472616e736665722077657468206661696c6564000000000000000061459d565b5b8460048401526000806024856000735703b683c7f928b721ca95da988d73a3299d47575af190508061496e5761496d60587c1477697468647261772077657468206661696c6564000000000000000061459d565b5b60008060008088885af19050806149a8576149a760557c1173656e64206574686572206661696c6564000000000000000000000061459d565b5b5050505050565b60006040517f0dfe1681d21220a7ddca3f43a9059cbb0a5ea4660000000000000000000000008152600080600483865afa80614a0e57614a0d60557c1167657420746f6b656e30206661696c6564000000000000000000000061459d565b5b60206000803e60005192505050919050565b60006040517f0dfe1681d21220a7ddca3f43a9059cbb0a5ea46600000000000000000000000081526000806004808401865afa80614a8157614a8060547c1167657420746f6b656e31206661696c6564000000000000000000000061459d565b5b60206000803e60005192505050919050565b73eeeeeeeeeeeeeeeeeeeeeeeeeeeeeeeeeeeeeeee8060003403614b005782357f8000000000000000000000000000000000000000000000000000000000000000811660001460018114614af157614aea82614a20565b9350614afd565b614afa826149af565b93505b50505b60007f200000000000000000000000000000000000000000000000000000000000000085351603614b7a5783357f8000000000000000000000000000000000000000000000000000000000000000811660001460018114614b6b57614b64826149af565b9250614b77565b614b7482614a20565b92505b50505b604051826000528160205232604052856080527f1bb43f2da90e35f7b0cf38521ca95a49e68eb42fac49924930a5bd73cdf7576c60a06000a180604052505050505050565b600080838592506020808202840103915060008103614c02577f67e7c0f60000000000000000000000000000000000000000000000000000000060005260046000fd5b5088600034118015614c1b57614c17896147fe565b309a505b5087606052825b82811015614c4857614c38898235848e306145eb565b9850309a50602081019050614c22565b5060007f2000000000000000000000000000000000000000000000000000000000000000833516118060018114614c865760008114614ca557614cb6565b614c948a8535858f306145eb565b9550614ca0868c614882565b614cb6565b614cb38a8535858f8f6145eb565b95505b505086841015614ce957614ce8605a7c164d696e2072657475726e206e6f74207265616368656400000000000061459d565b5b614cf4848385614a93565b5050509695505050505050565b6000614d0c83614db3565b15614d30578173ffffffffffffffffffffffffffffffffffffffff16319050614dad565b8273ffffffffffffffffffffffffffffffffffffffff166370a08231836040518263ffffffff1660e01b8152600401614d699190616b61565b602060405180830381865afa158015614d86573d6000803e3d6000fd5b505050506040513d601f19601f82011682018060405250810190614daa9190617307565b90505b92915050565b600073eeeeeeeeeeeeeeeeeeeeeeeeeeeeeeeeeeeeeeee73ffffffffffffffffffffffffffffffffffffffff168273ffffffffffffffffffffffffffffffffffffffff16149050919050565b6000614e2982600081518110614e1857614e17617334565b5b6020026020010151608001516120a7565b905060008060008451905060005b81811015614fa4576000811115614ea057614e6f868281518110614e5e57614e5d617334565b5b6020026020010151608001516120a7565b9450614e9a308673ffffffffffffffffffffffffffffffffffffffff16614d0190919063ffffffff16565b9650309a505b6000309050600183614eb29190617806565b82148015614ebe575088155b15614ecb57899050614f6d565b600183614ed89190617806565b82108015614f115750600187600184614ef1919061797a565b81518110614f0257614f01617334565b5b60200260200101516020015151145b15614f675786600183614f24919061797a565b81518110614f3557614f34617334565b5b602002602001015160200151600081518110614f5457614f53617334565b5b6020026020010151905060019450614f6c565b600094505b5b614f958c8c838b8b8781518110614f8757614f86617334565b5b6020026020010151896154ab565b84935081600101915050614e37565b5050505050505050505050565b614fd08273ffffffffffffffffffffffffffffffffffffffff16614db3565b1561528e57600073c02aaa39b223fe8d0a0e5c4f27ead9083c756cc273ffffffffffffffffffffffffffffffffffffffff166370a08231306040518263ffffffff1660e01b81526004016150249190616b61565b602060405180830381865afa158015615041573d6000803e3d6000fd5b505050506040513d601f19601f820116820180604052508101906150659190617307565b905060008111156151975773c02aaa39b223fe8d0a0e5c4f27ead9083c756cc273ffffffffffffffffffffffffffffffffffffffff1663a9059cbb735703b683c7f928b721ca95da988d73a3299d4757836040518363ffffffff1660e01b81526004016150d3929190617b84565b6020604051808303816000875af11580156150f2573d6000803e3d6000fd5b505050506040513d601f19601f820116820180604052508101906151169190617bc2565b50735703b683c7f928b721ca95da988d73a3299d475773ffffffffffffffffffffffffffffffffffffffff16632e1a7d4d826040518263ffffffff1660e01b81526004016151649190615e9b565b600060405180830381600087803b15801561517e57600080fd5b505af1158015615192573d6000803e3d6000fd5b505050505b3073ffffffffffffffffffffffffffffffffffffffff168273ffffffffffffffffffffffffffffffffffffffff161461528857600047905060008111156152865760008373ffffffffffffffffffffffffffffffffffffffff16826040516151fe9061765a565b60006040518083038185875af1925050503d806000811461523b576040519150601f19603f3d011682016040523d82523d6000602084013e615240565b606091505b5050905080615284576040517f08c379a000000000000000000000000000000000000000000000000000000000815260040161527b906176bb565b60405180910390fd5b505b505b50615357565b3073ffffffffffffffffffffffffffffffffffffffff168173ffffffffffffffffffffffffffffffffffffffff16146153565760008273ffffffffffffffffffffffffffffffffffffffff166370a08231306040518263ffffffff1660e01b81526004016152fc9190616b61565b602060405180830381865afa158015615319573d6000803e3d6000fd5b505050506040513d601f19601f8201168201806040525081019061533d9190617307565b905060008111156153545761535383838361337c565b5b505b5b5050565b60006153b0565b7f08c379a0000000000000000000000000000000000000000000000000000000006000527c200000000000000000000000000000000000000000000000000000000060205280604052816000fd5b73eeeeeeeeeeeeeeeeeeeeeeeeeeeeeeeeeeeeeeee83146001811461544957604051602481016040527f70a0823100000000000000000000000000000000000000000000000000000000815283600482015260206000602483885afa6000810361543d5761543c60587c146765742062616c616e63654f66206661696c65640000000000000000615362565b5b6000519350505061544e565b823191505b5092915050565b60006040518481528360048201528260248201526020600060448360008a5af1915081156154a2573d6000811461549857600160005114601f3d111692506154a0565b6000873b1192505b505b50949350505050565b600080600090505b836000015151811015615683576000846040015182815181106154d9576154d8617334565b5b602002602001015160001b90506000806000806154f989608001516120a7565b905073ffffffffffffffffffffffffffffffffffffffff851693507f80000000000000000000000000000000000000000000000000000000000000008516925075ffff0000000000000000000000000000000000000000851660a01c91508187615563919061797a565b965060018960000151516155779190617806565b86036155c3576127108711156155c2576040517f08c379a00000000000000000000000000000000000000000000000000000000081526004016155b990617c61565b60405180910390fd5b5b8761562157600061271083146155f157612710838c6155e29190617392565b6155ec9190617403565b6155f3565b8a5b905061561f8e8b6020015189815181106156105761560f617334565b5b6020026020010151848461568d565b505b505061566d818860000151868151811061563e5761563d617334565b5b60200260200101518b858b60600151898151811061565f5761565e617334565b5b60200260200101518f61575c565b505050808061567b90617c81565b9150506154b3565b5050505050505050565b3073ffffffffffffffffffffffffffffffffffffffff168473ffffffffffffffffffffffffffffffffffffffff16036156d0576156cb82848361337c565b615756565b7370cbb871e8f30fc8ce23609e9e0ea87b6b222f5873ffffffffffffffffffffffffffffffffffffffff16630a5ea466838686856040518563ffffffff1660e01b815260040161572394939291906175e4565b600060405180830381600087803b15801561573d57600080fd5b505af1158015615751573d6000803e3d6000fd5b505050505b50505050565b85156158c2576000808673ffffffffffffffffffffffffffffffffffffffff16636f7929f260e01b87878760405160240161579993929190617d1e565b604051602081830303815290604052907bffffffffffffffffffffffffffffffffffffffffffffffffffffffff19166020820180517bffffffffffffffffffffffffffffffffffffffffffffffffffffffff83818316178352505050508473ffffffffffffffffffffffffffffffffffffffff167f3ca20afc2ccc0000000000000000000000000000000000000000000000000000615838919061797a565b604051602001615849929190617dae565b6040516020818303038152906040526040516158659190617dd6565b6000604051808303816000865af19150503d80600081146158a2576040519150601f19603f3d011682016040523d82523d6000602084013e6158a7565b606091505b5091509150816158bb576158ba81615a26565b5b5050615a1e565b6000808673ffffffffffffffffffffffffffffffffffffffff166330e6ae3160e01b8787876040516024016158f993929190617d1e565b604051602081830303815290604052907bffffffffffffffffffffffffffffffffffffffffffffffffffffffff19166020820180517bffffffffffffffffffffffffffffffffffffffffffffffffffffffff83818316178352505050508473ffffffffffffffffffffffffffffffffffffffff167f3ca20afc2ccc0000000000000000000000000000000000000000000000000000615998919061797a565b6040516020016159a9929190617dae565b6040516020818303038152906040526040516159c59190617dd6565b6000604051808303816000865af19150503d8060008114615a02576040519150601f19603f3d011682016040523d82523d6000602084013e615a07565b606091505b509150915081615a1b57615a1a81615a26565b5b50505b505050505050565b600081511115615a3857805160208201fd5b6040517f08c379a0000000000000000000000000000000000000000000000000000000008152600401615a6a90617e39565b60405180910390fd5b60405180610100016040528060001515815260200160001515815260200160008152602001600073ffffffffffffffffffffffffffffffffffffffff168152602001600073ffffffffffffffffffffffffffffffffffffffff16815260200160008152602001600073ffffffffffffffffffffffffffffffffffffffff1681526020016000151581525090565b600082825260208201905092915050565b7f455448206465706f7369742072656a6563746564000000000000000000000000600082015250565b6000615b47601483615b00565b9150615b5282615b11565b602082019050919050565b60006020820190508181036000830152615b7681615b3a565b9050919050565b6000604051905090565b600080fd5b600080fd5b6000819050919050565b615ba481615b91565b8114615baf57600080fd5b50565b600081359050615bc181615b9b565b92915050565b60008060408385031215615bde57615bdd615b87565b5b6000615bec85828601615bb2565b9250506020615bfd85828601615bb2565b9150509250929050565b600073ffffffffffffffffffffffffffffffffffffffff82169050919050565b6000615c3282615c07565b9050919050565b615c4281615c27565b8114615c4d57600080fd5b50565b600081359050615c5f81615c39565b92915050565b600080fd5b600060a08284031215615c8057615c7f615c65565b5b81905092915050565b600080fd5b600080fd5b600080fd5b60008083601f840112615cae57615cad615c89565b5b8235905067ffffffffffffffff811115615ccb57615cca615c8e565b5b602083019150836020820283011115615ce757615ce6615c93565b5b9250929050565b60008083601f840112615d0457615d03615c89565b5b8235905067ffffffffffffffff811115615d2157615d20615c8e565b5b602083019150836020820283011115615d3d57615d3c615c93565b5b9250929050565b60008083601f840112615d5a57615d59615c89565b5b8235905067ffffffffffffffff811115615d7757615d76615c8e565b5b602083019150836020820283011115615d9357615d92615c93565b5b9250929050565b60008060008060008060008060006101408a8c031215615dbd57615dbc615b87565b5b6000615dcb8c828d01615bb2565b9950506020615ddc8c828d01615c50565b9850506040615ded8c828d01615c6a565b97505060e08a013567ffffffffffffffff811115615e0e57615e0d615b8c565b5b615e1a8c828d01615c98565b96509650506101008a013567ffffffffffffffff811115615e3e57615e3d615b8c565b5b615e4a8c828d01615cee565b94509450506101208a013567ffffffffffffffff811115615e6e57615e6d615b8c565b5b615e7a8c828d01615d44565b92509250509295985092959850929598565b615e9581615b91565b82525050565b6000602082019050615eb06000830184615e8c565b92915050565b60008083601f840112615ecc57615ecb615c89565b5b8235905067ffffffffffffffff811115615ee957615ee8615c8e565b5b602083019150836020820283011115615f0557615f04615c93565b5b9250929050565b60008060008060008060a08789031215615f2957615f28615b87565b5b6000615f3789828a01615bb2565b9650506020615f4889828a01615bb2565b9550506040615f5989828a01615bb2565b9450506060615f6a89828a01615c50565b935050608087013567ffffffffffffffff811115615f8b57615f8a615b8c565b5b615f9789828a01615eb6565b92509250509295509295509295565b600080600080600060808688031215615fc257615fc1615b87565b5b6000615fd088828901615bb2565b9550506020615fe188828901615bb2565b9450506040615ff288828901615bb2565b935050606086013567ffffffffffffffff81111561601357616012615b8c565b5b61601f88828901615c98565b92509250509295509295909350565b6000806000806000610100868803121561604b5761604a615b87565b5b600061605988828901615bb2565b955050602061606a88828901615c50565b945050604061607b88828901615c6a565b93505060e086013567ffffffffffffffff81111561609c5761609b615b8c565b5b6160a888828901615c98565b92509250509295509295909350565b600081519050919050565b60005b838110156160e05780820151818401526020810190506160c5565b60008484015250505050565b6000601f19601f8301169050919050565b6000616108826160b7565b6161128185615b00565b93506161228185602086016160c2565b61612b816160ec565b840191505092915050565b6000602082019050818103600083015261615081846160fd565b905092915050565b600080fd5b7f4e487b7100000000000000000000000000000000000000000000000000000000600052604160045260246000fd5b616195826160ec565b810181811067ffffffffffffffff821117156161b4576161b361615d565b5b80604052505050565b60006161c7615b7d565b90506161d3828261618c565b919050565b600080fd5b600060a082840312156161f3576161f2616158565b5b6161fd60a06161bd565b9050600061620d84828501615bb2565b600083015250602061622184828501615c50565b602083015250604061623584828501615bb2565b604083015250606061624984828501615bb2565b606083015250608061625d84828501615bb2565b60808301525092915050565b600067ffffffffffffffff8211156162845761628361615d565b5b602082029050602081019050919050565b60006162a86162a384616269565b6161bd565b905080838252602082019050602084028301858111156162cb576162ca615c93565b5b835b818110156162f457806162e08882615bb2565b8452602084019350506020810190506162cd565b5050509392505050565b600082601f83011261631357616312615c89565b5b8135616323848260208601616295565b91505092915050565b600067ffffffffffffffff8211156163475761634661615d565b5b602082029050602081019050919050565b600067ffffffffffffffff8211156163735761637261615d565b5b602082029050602081019050919050565b600067ffffffffffffffff82111561639f5761639e61615d565b5b602082029050602081019050919050565b60006163c36163be84616384565b6161bd565b905080838252602082019050602084028301858111156163e6576163e5615c93565b5b835b8181101561640f57806163fb8882615c50565b8452602084019350506020810190506163e8565b5050509392505050565b600082601f83011261642e5761642d615c89565b5b813561643e8482602086016163b0565b91505092915050565b600067ffffffffffffffff8211156164625761646161615d565b5b602082029050602081019050919050565b600080fd5b600067ffffffffffffffff8211156164935761649261615d565b5b61649c826160ec565b9050602081019050919050565b82818337600083830152505050565b60006164cb6164c684616478565b6161bd565b9050828152602081018484840111156164e7576164e6616473565b5b6164f28482856164a9565b509392505050565b600082601f83011261650f5761650e615c89565b5b813561651f8482602086016164b8565b91505092915050565b600061653b61653684616447565b6161bd565b9050808382526020820190506020840283018581111561655e5761655d615c93565b5b835b818110156165a557803567ffffffffffffffff81111561658357616582615c89565b5b80860161659089826164fa565b85526020850194505050602081019050616560565b5050509392505050565b600082601f8301126165c4576165c3615c89565b5b81356165d4848260208601616528565b91505092915050565b600060a082840312156165f3576165f2616158565b5b6165fd60a06161bd565b9050600082013567ffffffffffffffff81111561661d5761661c6161d8565b5b61662984828501616419565b600083015250602082013567ffffffffffffffff81111561664d5761664c6161d8565b5b61665984828501616419565b602083015250604082013567ffffffffffffffff81111561667d5761667c6161d8565b5b616689848285016162fe565b604083015250606082013567ffffffffffffffff8111156166ad576166ac6161d8565b5b6166b9848285016165af565b60608301525060806166cd84828501615bb2565b60808301525092915050565b60006166ec6166e784616358565b6161bd565b9050808382526020820190506020840283018581111561670f5761670e615c93565b5b835b8181101561675657803567ffffffffffffffff81111561673457616733615c89565b5b80860161674189826165dd565b85526020850194505050602081019050616711565b5050509392505050565b600082601f83011261677557616774615c89565b5b81356167858482602086016166d9565b91505092915050565b60006167a161679c8461632c565b6161bd565b905080838252602082019050602084028301858111156167c4576167c3615c93565b5b835b8181101561680b57803567ffffffffffffffff8111156167e9576167e8615c89565b5b8086016167f68982616760565b855260208501945050506020810190506167c6565b5050509392505050565b600082601f83011261682a57616829615c89565b5b813561683a84826020860161678e565b91505092915050565b600067ffffffffffffffff82111561685e5761685d61615d565b5b602082029050602081019050919050565b60008115159050919050565b6168848161686f565b811461688f57600080fd5b50565b6000813590506168a18161687b565b92915050565b600061014082840312156168be576168bd616158565b5b6168c96101406161bd565b905060006168d984828501615bb2565b60008301525060206168ed84828501615c50565b602083015250604061690184828501615c50565b604083015250606061691584828501615c50565b606083015250608061692984828501615bb2565b60808301525060a061693d84828501615bb2565b60a08301525060c061695184828501615bb2565b60c08301525060e061696584828501615bb2565b60e08301525061010061697a84828501616892565b6101008301525061012082013567ffffffffffffffff8111156169a05761699f6161d8565b5b6169ac848285016164fa565b6101208301525092915050565b60006169cc6169c784616843565b6161bd565b905080838252602082019050602084028301858111156169ef576169ee615c93565b5b835b81811015616a3657803567ffffffffffffffff811115616a1457616a13615c89565b5b808601616a2189826168a7565b855260208501945050506020810190506169f1565b5050509392505050565b600082601f830112616a5557616a54615c89565b5b8135616a658482602086016169b9565b91505092915050565b6000806000806000806101408789031215616a8c57616a8b615b87565b5b6000616a9a89828a016161dd565b96505060a087013567ffffffffffffffff811115616abb57616aba615b8c565b5b616ac789828a016162fe565b95505060c087013567ffffffffffffffff811115616ae857616ae7615b8c565b5b616af489828a01616815565b94505060e087013567ffffffffffffffff811115616b1557616b14615b8c565b5b616b2189828a01616a40565b935050610100616b3389828a01615c50565b925050610120616b4589828a01615c50565b9150509295509295509295565b616b5b81615c27565b82525050565b6000602082019050616b766000830184616b52565b92915050565b600080600080600060808688031215616b9857616b97615b87565b5b6000616ba688828901615bb2565b9550506020616bb788828901615bb2565b9450506040616bc888828901615bb2565b935050606086013567ffffffffffffffff811115616be957616be8615b8c565b5b616bf588828901615eb6565b92509250509295509295909350565b600080600060e08486031215616c1d57616c1c615b87565b5b6000616c2b86828701615bb2565b9350506020616c3c86828701615c50565b9250506040616c4d86828701615c6a565b9150509250925092565b600080600080600080600080610120898b031215616c7857616c77615b87565b5b6000616c868b828c01615bb2565b9850506020616c978b828c01615c6a565b97505060c089013567ffffffffffffffff811115616cb857616cb7615b8c565b5b616cc48b828c01615c98565b965096505060e089013567ffffffffffffffff811115616ce757616ce6615b8c565b5b616cf38b828c01615cee565b945094505061010089013567ffffffffffffffff811115616d1757616d16615b8c565b5b616d238b828c01615d44565b92509250509295985092959890939650565b60008060008060006101008688031215616d5257616d51615b87565b5b6000616d6088828901615bb2565b9550506020616d7188828901615c50565b9450506040616d8288828901615c6a565b93505060e086013567ffffffffffffffff811115616da357616da2615b8c565b5b616daf88828901615eb6565b92509250509295509295909350565b60008060008060006101208688031215616ddb57616dda615b87565b5b6000616de9888289016161dd565b95505060a086013567ffffffffffffffff811115616e0a57616e09615b8c565b5b616e16888289016162fe565b94505060c086013567ffffffffffffffff811115616e3757616e36615b8c565b5b616e4388828901616815565b93505060e086013567ffffffffffffffff811115616e6457616e63615b8c565b5b616e7088828901616a40565b925050610100616e8288828901615c50565b9150509295509295909350565b6000819050919050565b616ea281616e8f565b8114616ead57600080fd5b50565b600081359050616ebf81616e99565b92915050565b60008083601f840112616edb57616eda615c89565b5b8235905067ffffffffffffffff811115616ef857616ef7615c8e565b5b602083019150836001820283011115616f1457616f13615c93565b5b9250929050565b60008060008060608587031215616f3557616f34615b87565b5b6000616f4387828801616eb0565b9450506020616f5487828801616eb0565b935050604085013567ffffffffffffffff811115616f7557616f74615b8c565b5b616f8187828801616ec5565b925092505092959194509250565b7f526f7574653a2065787069726564000000000000000000000000000000000000600082015250565b6000616fc5600e83615b00565b9150616fd082616f8f565b602082019050919050565b60006020820190508181036000830152616ff481616fb8565b9050919050565b600060a0828403121561701157617010615b87565b5b600061701f848285016161dd565b91505092915050565b600061703536848461678e565b905092915050565b7f756e78737761703a20746f6b656e206d69736d61746368000000000000000000600082015250565b6000617073601783615b00565b915061707e8261703d565b602082019050919050565b600060208201905081810360008301526170a281617066565b9050919050565b6000602082840312156170bf576170be615b87565b5b60006170cd84828501615c50565b91505092915050565b7f756e697377617056333a20746f6b656e206d69736d6174636800000000000000600082015250565b600061710c601983615b00565b9150617117826170d6565b602082019050919050565b6000602082019050818103600083015261713b816170ff565b9050919050565b7f496e76616c696420736f7572636520746f6b656e000000000000000000000000600082015250565b6000617178601483615b00565b915061718382617142565b602082019050919050565b600060208201905081810360008301526171a78161716b565b9050919050565b7f726566756e64546f206973206164647265737328302900000000000000000000600082015250565b60006171e4601683615b00565b91506171ef826171ae565b602082019050919050565b60006020820190508181036000830152617213816171d7565b9050919050565b7f746f206973206164647265737328302900000000000000000000000000000000600082015250565b6000617250601083615b00565b915061725b8261721a565b602082019050919050565b6000602082019050818103600083015261727f81617243565b9050919050565b7f66726f6d546f6b656e416d6f756e742069732030000000000000000000000000600082015250565b60006172bc601483615b00565b91506172c782617286565b602082019050919050565b600060208201905081810360008301526172eb816172af565b9050919050565b60008151905061730181615b9b565b92915050565b60006020828403121561731d5761731c615b87565b5b600061732b848285016172f2565b91505092915050565b7f4e487b7100000000000000000000000000000000000000000000000000000000600052603260045260246000fd5b7f4e487b7100000000000000000000000000000000000000000000000000000000600052601160045260246000fd5b600061739d82615b91565b91506173a883615b91565b92508282026173b681615b91565b915082820484148315176173cd576173cc617363565b5b5092915050565b7f4e487b7100000000000000000000000000000000000000000000000000000000600052601260045260246000fd5b600061740e82615b91565b915061741983615b91565b925082617429576174286173d4565b5b828204905092915050565b7f53776170577261703a20696e76616c696420746f6b656e207061697200000000600082015250565b600061746a601c83615b00565b915061747582617434565b602082019050919050565b600060208201905081810360008301526174998161745d565b9050919050565b7f756e78737761703a2066726f6d546f6b656e206d69736d617463680000000000600082015250565b60006174d6601b83615b00565b91506174e1826174a0565b602082019050919050565b60006020820190508181036000830152617505816174c9565b9050919050565b7f756e78737761703a20746f546f6b656e206d69736d6174636800000000000000600082015250565b6000617542601983615b00565b915061754d8261750c565b602082019050919050565b6000602082019050818103600083015261757181617535565b9050919050565b7f616d6f756e74206d757374206265203e20300000000000000000000000000000600082015250565b60006175ae601283615b00565b91506175b982617578565b602082019050919050565b600060208201905081810360008301526175dd816175a1565b9050919050565b60006080820190506175f96000830187616b52565b6176066020830186616b52565b6176136040830185616b52565b6176206060830184615e8c565b95945050505050565b600081905092915050565b50565b6000617644600083617629565b915061764f82617634565b600082019050919050565b600061766582617637565b9150819050919050565b7f7472616e73666572206e617469766520746f6b656e206661696c656400000000600082015250565b60006176a5601c83615b00565b91506176b08261766f565b602082019050919050565b600060208201905081810360008301526176d481617698565b9050919050565b7f76616c7565206e6f7420657175616c20616d6f756e7400000000000000000000600082015250565b6000617711601683615b00565b915061771c826176db565b602082019050919050565b6000602082019050818103600083015261774081617704565b9050919050565b600060a08201905061775c6000830188616b52565b6177696020830187616b52565b6177766040830186616b52565b6177836060830185615e8c565b6177906080830184615e8c565b9695505050505050565b7f6e6f742061646472283029000000000000000000000000000000000000000000600082015250565b60006177d0600b83615b00565b91506177db8261779a565b602082019050919050565b600060208201905081810360008301526177ff816177c3565b9050919050565b600061781182615b91565b915061781c83615b91565b925082820390508181111561783457617833617363565b5b92915050565b7f706f6f6c73206d7573742062652067726561746572207468616e203000000000600082015250565b6000617870601c83615b00565b915061787b8261783a565b602082019050919050565b6000602082019050818103600083015261789f81617863565b9050919050565b6000815190506178b581615c39565b92915050565b6000602082840312156178d1576178d0615b87565b5b60006178df848285016178a6565b91505092915050565b7f526f7574653a2066726f6d546f6b656e416d6f756e74206d757374206265203e60008201527f2030000000000000000000000000000000000000000000000000000000000000602082015250565b6000617944602283615b00565b915061794f826178e8565b604082019050919050565b6000602082019050818103600083015261797381617937565b9050919050565b600061798582615b91565b915061799083615b91565b92508282019050808211156179a8576179a7617363565b5b92915050565b7f526f7574653a206e756d626572206f6620626174636865732073686f756c642060008201527f6265203c3d2066726f6d546f6b656e416d6f756e740000000000000000000000602082015250565b6000617a0a603583615b00565b9150617a15826179ae565b604082019050919050565b60006020820190508181036000830152617a39816179fd565b9050919050565b7f6c656e677468206d69736d617463680000000000000000000000000000000000600082015250565b6000617a76600f83615b00565b9150617a8182617a40565b602082019050919050565b60006020820190508181036000830152617aa581617a69565b9050919050565b7f4d696e2072657475726e206e6f74207265616368656400000000000000000000600082015250565b6000617ae2601683615b00565b9150617aed82617aac565b602082019050919050565b60006020820190508181036000830152617b1181617ad5565b9050919050565b7f496e76616c696420636f6d6d697373696f6e20696e666f000000000000000000600082015250565b6000617b4e601783615b00565b9150617b5982617b18565b602082019050919050565b60006020820190508181036000830152617b7d81617b41565b9050919050565b6000604082019050617b996000830185616b52565b617ba66020830184615e8c565b9392505050565b600081519050617bbc8161687b565b92915050565b600060208284031215617bd857617bd7615b87565b5b6000617be684828501617bad565b91505092915050565b7f746f74616c5765696768742063616e206e6f742065786365656420313030303060008201527f206c696d69740000000000000000000000000000000000000000000000000000602082015250565b6000617c4b602683615b00565b9150617c5682617bef565b604082019050919050565b60006020820190508181036000830152617c7a81617c3e565b9050919050565b6000617c8c82615b91565b91507fffffffffffffffffffffffffffffffffffffffffffffffffffffffffffffffff8203617cbe57617cbd617363565b5b600182019050919050565b600081519050919050565b600082825260208201905092915050565b6000617cf082617cc9565b617cfa8185617cd4565b9350617d0a8185602086016160c2565b617d13816160ec565b840191505092915050565b6000606082019050617d336000830186616b52565b617d406020830185616b52565b8181036040830152617d528184617ce5565b9050949350505050565b6000617d6782617cc9565b617d718185617629565b9350617d818185602086016160c2565b80840191505092915050565b6000819050919050565b617da8617da382615b91565b617d8d565b82525050565b6000617dba8285617d5c565b9150617dc68284617d97565b6020820191508190509392505050565b6000617de28284617d5c565b915081905092915050565b7f61646170746f722063616c6c206661696c656400000000000000000000000000600082015250565b6000617e23601383615b00565b9150617e2e82617ded565b602082019050919050565b60006020820190508181036000830152617e5281617e16565b905091905056fea264697066735822122044adf0c9969e6f5ff310e6dff3e9087ffde34b3550b176ca67bdfa116424fbb964736f6c63430008110033","linkReferences":{}},"methodIdentifiers":{"DENOMINATOR()":"918f8674","_APPROVE_PROXY()":"6aa47645","_WETH()":"e0af3616","_WNATIVE_RELAY()":"73679b6b","commissionRateLimit()":"ca68d8f6","smartSwapByInvest((uint256,address,uint256,uint256,uint256),uint256[],(address[],address[],uint256[],bytes[],uint256)[][],(uint256,address,address,address,uint256,uint256,uint256,uint256,bool,bytes)[],address)":"e99bfa95","smartSwapByInvestWithRefund((uint256,address,uint256,uint256,uint256),uint256[],(address[],address[],uint256[],bytes[],uint256)[][],(uint256,address,address,address,uint256,uint256,uint256,uint256,bool,bytes)[],address,address)":"591b3d08","smartSwapByOrderId(uint256,(uint256,address,uint256,uint256,uint256),uint256[],(address[],address[],uint256[],bytes[],uint256)[][],(uint256,address,address,address,uint256,uint256,uint256,uint256,bool,bytes)[])":"b80c2f09","smartSwapTo(uint256,address,(uint256,address,uint256,uint256,uint256),uint256[],(address[],address[],uint256[],bytes[],uint256)[][],(uint256,address,address,address,uint256,uint256,uint256,uint256,bool,bytes)[])":"03b87e5f","swapWrap(uint256,uint256)":"01617fab","swapWrapToWithBaseRequest(uint256,address,(uint256,address,uint256,uint256,uint256))":"98d2ac62","uniswapV3SwapCallback(int256,int256,bytes)":"fa461e33","uniswapV3SwapTo(uint256,uint256,uint256,uint256[])":"0d5f0e3b","uniswapV3SwapToWithBaseRequest(uint256,address,(uint256,address,uint256,uint256,uint256),uint256[])":"44014e98","unxswapByOrderId(uint256,uint256,uint256,bytes32[])":"9871efa4","unxswapTo(uint256,uint256,uint256,address,bytes32[])":"08298b5a","unxswapToWithBaseRequest(uint256,address,(uint256,address,uint256,uint256,uint256),bytes32[])":"b8815477","version()":"54fd4d50"},"id":0}