{"abi":[{"type":"function","name":"addProxy","inputs":[{"name":"_newProxy","type":"address","internalType":"address"}],"outputs":[],"stateMutability":"nonpayable"},{"type":"function","name":"allowedApprove","inputs":[{"name":"","type":"address","internalType":"address"}],"outputs":[{"name":"","type":"bool","internalType":"bool"}],"stateMutability":"view"},{"type":"function","name":"claimTokens","inputs":[{"name":"_token","type":"address","internalType":"address"},{"name":"_who","type":"address","internalType":"address"},{"name":"_dest","type":"address","internalType":"address"},{"name":"_amount","type":"uint256","internalType":"uint256"}],"outputs":[],"stateMutability":"nonpayable"},{"type":"function","name":"initialize","inputs":[],"outputs":[],"stateMutability":"nonpayable"},{"type":"function","name":"isAllowedProxy","inputs":[{"name":"_proxy","type":"address","internalType":"address"}],"outputs":[{"name":"","type":"bool","internalType":"bool"}],"stateMutability":"view"},{"type":"function","name":"owner","inputs":[],"outputs":[{"name":"","type":"address","internalType":"address"}],"stateMutability":"view"},{"type":"function","name":"removeProxy","inputs":[{"name":"_oldProxy","type":"address","internalType":"address"}],"outputs":[],"stateMutability":"nonpayable"},{"type":"function","name":"renounceOwnership","inputs":[],"outputs":[],"stateMutability":"nonpayable"},{"type":"function","name":"setTokenApprove","inputs":[{"name":"_tokenApprove","type":"address","internalType":"address"}],"outputs":[],"stateMutability":"nonpayable"},{"type":"function","name":"tokenApprove","inputs":[],"outputs":[{"name":"","type":"address","internalType":"address"}],"stateMutability":"view"},{"type":"function","name":"transferOwnership","inputs":[{"name":"newOwner","type":"address","internalType":"address"}],"outputs":[],"stateMutability":"nonpayable"},{"type":"event","name":"AddNewProxy","inputs":[{"name":"newProxy","type":"address","indexed":false,"internalType":"address"}],"anonymous":false},{"type":"event","name":"Initialized","inputs":[{"name":"version","type":"uint8","indexed":false,"internalType":"uint8"}],"anonymous":false},{"type":"event","name":"OwnershipTransferred","inputs":[{"name":"previousOwner","type":"address","indexed":true,"internalType":"address"},{"name":"newOwner","type":"address","indexed":true,"internalType":"address"}],"anonymous":false},{"type":"event","name":"RemoveNewProxy","inputs":[{"name":"oldProxy","type":"address","indexed":false,"internalType":"address"}],"anonymous":false},{"type":"event","name":"TokenApproveChanged","inputs":[{"name":"newTokenApprove","type":"address","indexed":false,"internalType":"address"}],"anonymous":false}],"bytecode":{"object":"0x608060405234801561001057600080fd5b50610ead806100206000396000f3fe608060405234801561001057600080fd5b50600436106100a95760003560e01c80638129fc1c116100715780638129fc1c1461013e5780638da5cb5b14610148578063be116c3b14610166578063cc5183a114610182578063ef921f8f1461019e578063f2fde38b146101ce576100a9565b80630a5ea466146100ae5780631c6eced5146100ca57806323b11d8d146100e857806348a4f99314610104578063715018a614610134575b600080fd5b6100c860048036038101906100c39190610a23565b6101ea565b005b6100d261030f565b6040516100df9190610a99565b60405180910390f35b61010260048036038101906100fd9190610ab4565b610335565b005b61011e60048036038101906101199190610ab4565b6103cf565b60405161012b9190610afc565b60405180910390f35b61013c610425565b005b610146610439565b005b610150610577565b60405161015d9190610a99565b60405180910390f35b610180600480360381019061017b9190610ab4565b6105a1565b005b61019c60048036038101906101979190610ab4565b61063b565b005b6101b860048036038101906101b39190610ab4565b6106be565b6040516101c59190610afc565b60405180910390f35b6101e860048036038101906101e39190610ab4565b6106de565b005b606560003373ffffffffffffffffffffffffffffffffffffffff1673ffffffffffffffffffffffffffffffffffffffff16815260200190815260200160002060009054906101000a900460ff16610276576040517f08c379a000000000000000000000000000000000000000000000000000000000815260040161026d90610b74565b60405180910390fd5b606660009054906101000a900473ffffffffffffffffffffffffffffffffffffffff1673ffffffffffffffffffffffffffffffffffffffff16630a5ea466858585856040518563ffffffff1660e01b81526004016102d79493929190610ba3565b600060405180830381600087803b1580156102f157600080fd5b505af1158015610305573d6000803e3d6000fd5b5050505050505050565b606660009054906101000a900473ffffffffffffffffffffffffffffffffffffffff1681565b61033d610761565b6001606560008373ffffffffffffffffffffffffffffffffffffffff1673ffffffffffffffffffffffffffffffffffffffff16815260200190815260200160002060006101000a81548160ff0219169083151502179055507f102d162d8690811b17006e6e7529e0e7ec6c7f357d1d74d3d7ceff35fd75ce0f816040516103c49190610a99565b60405180910390a150565b6000606560008373ffffffffffffffffffffffffffffffffffffffff1673ffffffffffffffffffffffffffffffffffffffff16815260200190815260200160002060009054906101000a900460ff169050919050565b61042d610761565b61043760006107df565b565b60008060019054906101000a900460ff1615905080801561046a5750600160008054906101000a900460ff1660ff16105b806104975750610479306108a5565b1580156104965750600160008054906101000a900460ff1660ff16145b5b6104d6576040517f08c379a00000000000000000000000000000000000000000000000000000000081526004016104cd90610c5a565b60405180910390fd5b60016000806101000a81548160ff021916908360ff1602179055508015610513576001600060016101000a81548160ff0219169083151502179055505b61051b6108c8565b80156105745760008060016101000a81548160ff0219169083151502179055507f7f26b83ff96e1f2b6a682f133852f6798a09c465da95921460cefb3847402498600160405161056b9190610ccc565b60405180910390a15b50565b6000603360009054906101000a900473ffffffffffffffffffffffffffffffffffffffff16905090565b6105a9610761565b6000606560008373ffffffffffffffffffffffffffffffffffffffff1673ffffffffffffffffffffffffffffffffffffffff16815260200190815260200160002060006101000a81548160ff0219169083151502179055507fb24cbb8005827c88afc2851884e834493cae4ef0d1302bf939281696bd6ae759816040516106309190610a99565b60405180910390a150565b610643610761565b80606660006101000a81548173ffffffffffffffffffffffffffffffffffffffff021916908373ffffffffffffffffffffffffffffffffffffffff1602179055507fa69d19c2398bd40d6b994dab625be336b65a2ed8130be4ea3287f9be86be4a22816040516106b39190610a99565b60405180910390a150565b60656020528060005260406000206000915054906101000a900460ff1681565b6106e6610761565b600073ffffffffffffffffffffffffffffffffffffffff168173ffffffffffffffffffffffffffffffffffffffff1603610755576040517f08c379a000000000000000000000000000000000000000000000000000000000815260040161074c90610d59565b60405180910390fd5b61075e816107df565b50565b610769610921565b73ffffffffffffffffffffffffffffffffffffffff16610787610577565b73ffffffffffffffffffffffffffffffffffffffff16146107dd576040517f08c379a00000000000000000000000000000000000000000000000000000000081526004016107d490610dc5565b60405180910390fd5b565b6000603360009054906101000a900473ffffffffffffffffffffffffffffffffffffffff16905081603360006101000a81548173ffffffffffffffffffffffffffffffffffffffff021916908373ffffffffffffffffffffffffffffffffffffffff1602179055508173ffffffffffffffffffffffffffffffffffffffff168173ffffffffffffffffffffffffffffffffffffffff167f8be0079c531659141344cd1fd0a4f28419497f9722a3daafe3b4186f6b6457e060405160405180910390a35050565b6000808273ffffffffffffffffffffffffffffffffffffffff163b119050919050565b600060019054906101000a900460ff16610917576040517f08c379a000000000000000000000000000000000000000000000000000000000815260040161090e90610e57565b60405180910390fd5b61091f610929565b565b600033905090565b600060019054906101000a900460ff16610978576040517f08c379a000000000000000000000000000000000000000000000000000000000815260040161096f90610e57565b60405180910390fd5b610988610983610921565b6107df565b565b600080fd5b600073ffffffffffffffffffffffffffffffffffffffff82169050919050565b60006109ba8261098f565b9050919050565b6109ca816109af565b81146109d557600080fd5b50565b6000813590506109e7816109c1565b92915050565b6000819050919050565b610a00816109ed565b8114610a0b57600080fd5b50565b600081359050610a1d816109f7565b92915050565b60008060008060808587031215610a3d57610a3c61098a565b5b6000610a4b878288016109d8565b9450506020610a5c878288016109d8565b9350506040610a6d878288016109d8565b9250506060610a7e87828801610a0e565b91505092959194509250565b610a93816109af565b82525050565b6000602082019050610aae6000830184610a8a565b92915050565b600060208284031215610aca57610ac961098a565b5b6000610ad8848285016109d8565b91505092915050565b60008115159050919050565b610af681610ae1565b82525050565b6000602082019050610b116000830184610aed565b92915050565b600082825260208201905092915050565b7f417070726f766550726f78793a20416363657373207265737472696374656400600082015250565b6000610b5e601f83610b17565b9150610b6982610b28565b602082019050919050565b60006020820190508181036000830152610b8d81610b51565b9050919050565b610b9d816109ed565b82525050565b6000608082019050610bb86000830187610a8a565b610bc56020830186610a8a565b610bd26040830185610a8a565b610bdf6060830184610b94565b95945050505050565b7f496e697469616c697a61626c653a20636f6e747261637420697320616c72656160008201527f647920696e697469616c697a6564000000000000000000000000000000000000602082015250565b6000610c44602e83610b17565b9150610c4f82610be8565b604082019050919050565b60006020820190508181036000830152610c7381610c37565b9050919050565b6000819050919050565b600060ff82169050919050565b6000819050919050565b6000610cb6610cb1610cac84610c7a565b610c91565b610c84565b9050919050565b610cc681610c9b565b82525050565b6000602082019050610ce16000830184610cbd565b92915050565b7f4f776e61626c653a206e6577206f776e657220697320746865207a65726f206160008201527f6464726573730000000000000000000000000000000000000000000000000000602082015250565b6000610d43602683610b17565b9150610d4e82610ce7565b604082019050919050565b60006020820190508181036000830152610d7281610d36565b9050919050565b7f4f776e61626c653a2063616c6c6572206973206e6f7420746865206f776e6572600082015250565b6000610daf602083610b17565b9150610dba82610d79565b602082019050919050565b60006020820190508181036000830152610dde81610da2565b9050919050565b7f496e697469616c697a61626c653a20636f6e7472616374206973206e6f74206960008201527f6e697469616c697a696e67000000000000000000000000000000000000000000602082015250565b6000610e41602b83610b17565b9150610e4c82610de5565b604082019050919050565b60006020820190508181036000830152610e7081610e34565b905091905056fea2646970667358221220c7cbbccf7d8097767157283314ff090d045332df1ce65a3d37e5dc6b4b2ec74164736f6c63430008110033","linkReferences":{}},"methodIdentifiers":{"addProxy(address)":"23b11d8d","allowedApprove(address)":"ef921f8f","claimTokens(address,address,address,uint256)":"0a5ea466","initialize()":"8129fc1c","isAllowedProxy(address)":"48a4f993","owner()":"8da5cb5b","removeProxy(address)":"be116c3b","renounceOwnership()":"715018a6","setTokenApprove(address)":"cc5183a1","tokenApprove()":"1c6eced5","transferOwnership(address)":"f2fde38b"},"id":3}